:100000000C942A000C9434000C9434000C943400AA
:100010000C9434000C9434000C9434000C94340090
:100020000C9434000C9434000C9434000C94340080
:100030000C9434000C9434000C9434000C94340070
:100040000C9434000C9434000C9434000C94340060
:100050000C94340011241FBECFE5D8E0DEBFCDBF25
:100060000E9436000C9497000C94000080E884BF36
:1000700084BF1ABA8FEF87BB14BA11BA10E018BB4D
:10008000E0B33E2F3F70CE2FC295CF7083B3D82FF1
:10009000DF7099B3092F0170A92FA270B0E0B59558
:1000A000A795692F647070E075956795759567954C
:1000B000492F487050E0559547955595479555956A
:1000C0004795292F221F2227221F90E1399FF001F7
:1000D0001124EC2B31E0310F887090E095958795D5
:1000E000959587959595879580FDD06FD30F60FF87
:1000F00004C0011106C080E007C0A0FD04C080E07C
:1001000003C081E001C081E0817009F03D2F40FD16
:100110003E2F2111B4CF38BB2FE986E891E0215062
:1001200080409040E1F700C00000132FA8CFF89462
:02013000FFCFFF
:00000001FF
