S01700004763634170706C69636174696F6E342E7372656358
S11300000C942A000C9434000C9434000C943400A6
S11300100C9434000C9434000C9434000C9434008C
S11300200C9434000C9434000C9434000C9434007C
S11300300C9434000C9434000C9434000C9434006C
S11300400C9434000C9434000C9434000C9434005C
S11300500C94340011241FBECFE5D8E0DEBFCDBF21
S11300600E9483000C94F1000C9400008130F1F0A4
S11300708230F9F0833001F1843009F1853011F1D7
S1130080863019F1873021F1883029F1893031F136
S11300908A3039F18B3041F18C3049F18D3051F196
S11300A08E3059F169F180E090E0089581E090E0AC
S11300B0089582E090E0089583E090E0089584E05C
S11300C090E0089585E090E0089586E090E008953A
S11300D087E090E0089588E090E0089589E090E05A
S11300E008958AE090E008958BE090E008958CE014
S11300F090E008958DE090E008958EE090E00895FA
S11301008FE090E00895CF93DF93CDB7DEB760978B
S11301100FB6F894DEBF0FBECDBF80E884BF84BFA6
S11301201ABA80EF87BB8FEF81BB89B3282F2F705A
S1130130F22E282F207130E0359527953595279597
S11301403595279535952795022F282F207230E075
S11301503595279535952795359527953595279583
S113016035952795482F407450E0042E452F000CF8
S1130170441F550B000C441F551F182F111F112726
S1130180111F86B38F70E82E20FF0EC040FF0EC0F3
S11301908F2D0E943600E1E0F0E0EC0FFD1F8E0F82
S11301A09F1FFC01808103C08F2D01C08F2D82BB56
S11301B011110DC0002359F08F2D0E94360021E04B
S11301C030E02C0F3D1F820F931FFC01E082FFE7FC
S11301D02AE136E0F15020403040E1F700C0000051
S10901E0A4CFF894FFCF48
S9030000FC
