S01700004763634170706C69636174696F6E342E7372656358
S11300000C942A000C9434000C9434000C943400A6
S11300100C9434000C9434000C9434000C9434008C
S11300200C9434000C9434000C9434000C9434007C
S11300300C9434000C9434000C9434000C9434006C
S11300400C9434000C9434000C9434000C9434005C
S11300500C94340011241FBECFE5D8E0DEBFCDBF21
S11300600E9452000C94D9000C940000813059F085
S1130070823061F0833069F0843071F0853079F03A
S113008080E090E0089581E090E0089582E090E0BF
S1130090089583E090E0089584E090E0089585E079
S11300A090E00895CF93DF9300D000D000D0CDB777
S11300B0DEB780E884BF84BF1ABA17BA8FEF84BB57
S11300C08FE081BB80E090E008C0E1E0F0E0EC0F5D
S11300D0FD1FE80FF91F1082019686309105ACF3DD
S11300E086B3982F9F7082958F70E1E0F0E0EC0F5B
S11300F0FD1FE90FF11D9081E1E0F0E0EC0FFD1F21
S1130100E80FF11D408150E1959F90011124242BAB
S113011025BB90B3092F02950F7099B3192F1F7047
S1130120292F207230E0A90155954795559547959B
S1130130559547955595479555954795292F20747D
S113014030E0022E232F000C221F330B000C221F41
S1130150331F9923E4F020FF1AC040FF0DC0892FFC
S113016087700E943600E1E0F0E0EC0FFD1F8E0F77
S11301709F1FFC0100830BC087700E94360021E0A2
S113018030E02C0F3D1F820F931FFC010083E1E040
S1130190F0E0EC0FFD1FE10FF11D808182BBFFE356
S11301A022E43FE0F15020403040E1F700C000007D
S10901B097CFF894FFCF85
S9030000FC
