S01700004763634170706C69636174696F6E342E7372656358
S11300000C942A000C943F000C943F000C943F0085
S11300100C943F000C943F000C943F000C943F0060
S11300200C943F000C943F000C943F000C943F0050
S11300300C943F000C943F000C943F000C943F0040
S11300400C943F000C943F000C943F000C943F0030
S11300500C943F0011241FBECFE5D8E0DEBFCDBF16
S113006010E0A0E6B0E0E8EEF0E002C005900D92EA
S1130070A838B107D9F70E9441000C9472000C947F
S11300800000CF93DF93CDB7DEB7A8970FB6F894EF
S1130090DEBF0FBECDBF80E884BF84BF88E2E0E648
S11300A0F0E0DE01119601900D928A95E1F717BAFE
S11300B08FEF84BB81BBE6B3F0E0EE0FFF1F81E05E
S11300C090E08C0F9D1FE80FF91F80819181392FDB
S11300D0307F282F2F70232B9F70807F892B25BB87
S10B00E082BBE9CFF894FFCFC5
S11300E823003E8031E234923551237331A34123F6
S11300F840D14114346330D131C152A531F5511581
S10B0108253224F340D138B183
S9030000FC
