S01700004763634170706C69636174696F6E342E7372656358
S11300000C942A000C9434000C9434000C943400A6
S11300100C9434000C9434000C9434000C9434008C
S11300200C9434000C9434000C9434000C9434007C
S11300300C9434000C9434000C9434000C9434006C
S11300400C9434000C9434000C9434000C9434005C
S11300500C94340011241FBECFE5D8E0DEBFCDBF21
S11300600E9436000C94A0000C94000080E884BF29
S113007084BF17BA1ABA8FEF84BB81BB89B3282F08
S11300802F70482F42954F7036B3832F8E7090E0B7
S113009095958795582FE32FE295EF70732F717024
S11300A030FD02C0642F03C0713009F46E2F51116A
S11300B003C0862F820F33C080FF03C0822F861BAC
S11300C02EC081FF03C0862F822329C0AC01437058
S11300D05527452B19F0862F822B21C082FF07C09C
S11300E0822F062E01C0880F0A94EAF718C0AC01CB
S11300F045705527452B51F0822F220F990B062E60
S113010002C0959587950A94E2F709C086709927ED
S1130110892B21F0862F822B809501C08FEF8111CE
S113012002C091E001C090E097959927979595BBFF
S113013082BB87EA91E60197F1F700C000009ECFE9
S1070140F894FFCF5D
S9030000FC
