S01700004763634170706C69636174696F6E332E7372656359
S11300000C942A000C9434000C9434000C943400A6
S11300100C9434000C9434000C9434000C9434008C
S11300200C9434000C9434000C9434000C9434007C
S11300300C9434000C9434000C9434000C9434006C
S11300400C9434000C9434000C9434000C9434005C
S11300500C94340011241FBECFE5D8E0DEBFCDBF21
S11300600E9436000C9444000C94000080E884BF85
S113007084BF8FEF8ABB87BB84BB81BB8FEF8BBBF5
S10F008088BB85BB82BBFACFF894FFCF8D
S9030000FC
