S01700004763634170706C69636174696F6E342E7372656358
S11300000C942A000C9434000C9434000C943400A6
S11300100C9434000C9434000C9434000C9434008C
S11300200C9434000C9434000C9434000C9434007C
S11300300C9434000C9434000C9434000C9434006C
S11300400C9434000C9434000C9434000C9434005C
S11300500C94340011241FBECFE5D8E0DEBFCDBF21
S11300600E9436000C9460010C94000080E884BF68
S113007084BF8FE087BB8FEF84BB81BB86B382953F
S11300808F70B1F18130F1F1823009F445C08330D1
S113009009F44CC0843009F453C0853009F45AC0C3
S11300A0863009F461C0873009F468C0883009F4E7
S11300B06FC0893009F476C08A3009F47DC08B3072
S11300C009F484C08C3009F48BC08D3009F492C0DB
S11300D08E3009F499C08F3009F0A0C070E0B0E010
S11300E080E090E031E040E050E021E0A2E09FC0F9
S11300F070E0B0E080E090E031E040E050E021E0EA
S1130100A0E095C070E0B0E080E090E031E040E035
S113011050E021E0A4E08BC070E0B1E080E090E02A
S113012030E040E050E020E0A1E081C070E0B0E0C9
S113013080E090E031E040E050E021E0A3E077C0CF
S113014070E0B0E080E090E031E041E050E020E099
S1130150A2E06DC070E0B0E080E090E031E041E00A
S113016050E020E0A6E063C070E0B0E080E091E001
S113017031E040E050E021E0A0E059C070E0B0E0A0
S113018081E090E030E040E050E021E0A0E04FC0AA
S113019070E0B0E080E090E031E040E050E021E049
S11301A0A1E045C070E0B0E080E090E031E041E0E3
S11301B050E020E0A1E03BC070E0B0E080E090E0DF
S11301C031E040E050E021E0A5E031C071E0B0E072
S11301D080E090E030E040E050E020E0A1E027C083
S11301E070E0B0E080E090E031E041E050E020E0F9
S11301F0A3E01DC070E0B0E080E090E030E040E0BB
S113020051E020E0A0E013C070E0B0E080E090E0B6
S113021031E041E050E020E0A0E009C070E0B0E04F
S113022080E090E030E040E050E020E0A0E0E72F04
S1130230F0E0EE0FFF1F652F70E0660F771F660F6B
S1130240771FEB2B6E2B68BB682F70E0660F771F50
S113025062957295707F7627607F7627892F90E06C
S1130260FC010024F695E7950794F695E795079425
S1130270FE2FE02D9695982F8827979587956E2BBE
S1130280862B85BB50E0FA01EE0FFF1FEE0FFF1F18
S1130290432F50E0440F551F440F551F440F551F63
S11302A080E1A89FB0011124822F90E09695982FA9
S11302B08827979587954E2B462B842B82BBDECEC1
S10702C0F894FFCFDC
S9030000FC
